S0110000416D704472697665722E7372656389
S11300000C9440000C9468000C9468000C946800F4
S11300100C9468000C9468000C9468000C946800BC
S11300200C9468000C9468000C9468000C946800AC
S11300300C9468000C94F7010C9468000C9468000C
S11300400C9468000C9406010C9468000C946800ED
S11300500C9468000C9468000C9468000C9468007C
S11300600C9468000C9468000C9468000C9468006C
S11300700C9468000C9468000C946800EE0252031F
S113008011241FBECFEFD8E0DEBFCDBF11E0A0E04A
S1130090B1E0E6EDF7E002C005900D92A436B10799
S11300A0D9F721E0A4E6B1E001C01D92AD3CB2074E
S11300B0E1F710E0CFE3D0E004C02197FE010E94F5
S11300C09503CE33D107C9F70E946D020C94DE0369
S11300D00C94000085B7806885BF85B7806885BFAC
S11300E085B7806885BF0895EF92FF920F931F93A1
S11300F0CF93DF93EC0185E0FB01DE019496019040
S11301000D928A95E1F785E0FA01DE019996019056
S11301100D928A95E1F77E0184E2E80EF11C61E01C
S1130120C7010E9460038E01075D1F4F61E0C80193
S11301300E94600360E0C7010E94800360E0C80180
S11301400E948003DE01119688E0FD01982F119230
S11301509A95E9F797E0ECE3F1E001900D929A9516
S1130160E1F71882DE011A96FD01982F11929A95F3
S1130170E9F797E0E3E4F1E001900D929A95E1F755
S113018091E09987DE015396FD01982F11929A957B
S1130190E9F796E0EAE4F1E001900D929A95E1F72F
S11301A092E09A8BFE017C96DF011D928A95E9F715
S11301B084E491E49D8F8C8F83E490E09383828325
S11301C083E08B8FDF91CF911F910F91FF90EF9080
S11301D008950895EF92FF920F931F93CF93DF93A7
S11301E0EC017A0189010E945F03B701CE010596F3
S11301F00E945F03B801CE010A960E945F03DF915B
S1130200CF911F910F91FF90EF9008951F920F923D
S11302100FB60F9211242F934F935F936F937F9395
S11302208F939F93AF93BF938091640190916501E5
S1130230A0916601B0916701AC01BD014F5F5F4FB2
S11302406F4F7F4F40936401509365016093660143
S11302507093670181309440A105B10544F0109278
S11302606401109265011092660110926701BF91BA
S1130270AF919F918F917F916F915F914F912F914A
S11302800F900FBE0F901F90189514BC16BC85B527
S1130290836085BD84E688BDB29AEEE6F0E0808195
S11302A084608083089580FF02C0429A01C042980E
S11302B081FF02C0439A01C0439882FF02C0449A5E
S11302C001C0449883FF02C0459A08954598089553
S11302D0CF93C82F409A82958F700E945301409803
S11302E0409A8C2F0E945301409885E88A95F1F733
S11302F00000CF91089541980E9468010895419AA1
S11303000E9468010895CF93DF93EC0188818823CC
S113031031F021960E947F0189918111FBCFDF91F9
S1130320CF910895623031F0633031F0613031F4AF
S113033090E405C094E103C094E501C090E0890F06
S113034080680E947B01089581E00E947B018FE90F
S11303509FE00197F1F700C00000089582E00E9439
S11303607B018FE99FE00197F1F700C00000089539
S1130370CF933A9A3B9A3C9A3D9A389A399A8FE4A9
S113038093EC0197F1F700C0000041984098C3E056
S1130390409A83E00E94530140988FE19EE40197C4
S11303A0F1F700C00000C15099F7409A82E00E9422
S11303B0530140988FE097E20197F1F700C00000E5
S11303C088E20E947B0188E00E947B0181E00E9418
S11303D07B018FE097E20197F1F700C0000086E00F
S11303E00E947B018CE00E947B01CF9108951F92B3
S11303F00F920FB60F9211248F939F93AF93BF93D5
S113040080916C0190916D01019690936D018093A0
S11304106C010197F1F580916E0190916F01A091AB
S11304207001B09171010196A11DB11D80936E01FF
S113043090936F01A0937001B093710110926D01BC
S113044010926C0180916E0190916F01A0917001E6
S1130450B09171010897A105B105DCF080916801A4
S113046090916901A0916A01B0916B010196A11D5F
S1130470B11D8093680190936901A0936A01B093C0
S11304806B0110926E0110926F0110927001109224
S11304907101BF91AF919F918F910F900FBE0F90FB
S11304A01F9018958FB780688FBF109280001092AC
S11304B0850010928400E1E8F0E080818D60808303
S11304C088EE93E09093890080938800B19AEFE6D8
S11304D0F0E08081826080830895CF93DF93CDB76D
S11304E0DEB7A8970FB6F894DEBF0FBECDBF0E944B
S11304F06A008FE39CE90197F1F700C000000E94B5
S1130500B8010E94A4010E94AE0160E080E00E9454
S1130510920188E291E00E94830161E080E00E9400
S1130520920184E191E00E94830162E080E00E94F4
S1130530920180E091E00E9483010E9452020E9495
S11305404501789484E1E0E5F1E0DE0155960190FF
S11305500D928A95E1F744E150E060E270E0CE014B
S113056001960E949B0360E071E0CE0101960E9417
S1130570A2038091680190916901A0916A01B091F0
S11305806B014AE0BE01655F7F4F0E94A9034CE006
S113059050E060E270E0CE014D960E949B03809192
S11305A0640190916501A0916601B09167014AE0F0
S11305B0BE01615E7F4F0E94A90362E080E00E9459
S11305C09201CE0101960E94830163E080E00E94C3
S11305D09201CE0145960E948301BDCF0F93CF9324
S11305E0DF93CDB7DEB72F970FB6F894DEBF0FBEFB
S11305F0CDBF20B142B161B100E088EC91E00E942E
S1130600570320B142B161B101E083EC91E00E9453
S1130610570320B142B161B102E08EEB91E00E9438
S113062057036EEB71E0CE0101960E945F0363EC09
S113063071E0CE0106960E945F0368EC71E0CE0182
S11306400B960E945F039E012F5F3F4FAE014A5FEE
S11306505F4FBE01655F7F4F8AEA91E00E94EA0026
S113066020B142B161B103E085EA91E00E945703F1
S113067020B142B161B104E080EA91E00E945703E5
S113068040EA51E065EA71E082E791E00E9474007B
S11306902F960FB6F894DEBF0FBECDBFDF91CF917A
S11306A00F91089582E791E00E94E90008950F9365
S11306B0FC0160834183228303830F91089508958D
S11306C0FC0181E0611101C080E08483662361F054
S11306D081E090E0028002C0880F991F0A94E2F73B
S11306E09081892B8083089581E090E0028002C08C
S11306F0880F991F0A94E2F79181892B81830895C9
S1130700FC018481882381F09281662351F021E0E9
S113071030E0038002C0220F331F0A94E2F7822FD5
S113072001C080E0892B82830895EE0FFF1F05909E
S1130730F491E02D0994DC0101C06D9341505040C7
S1130740E0F70895FB01DC0101900D920020E1F730
S11307500895BB274A3031F4992322F4BDE29095E1
S113076081959F4F0C94B503BB27FB015527AA27FE
S1130770880F991FAA1FA41710F0A41B839550512A
S1130780B9F7A05DAA3308F0A95DA193009779F7A2
S1130790B111B1931192CB010C94CE03DC01FC0195
S11307A0672F71917723E1F7329704C07C916D93A1
S11307B070836291AE17BF07C8F3089510E0CFE3CA
S11307C0D0E004C0FE010E9495032196C034D107F5
S10907D0C9F7F894FFCF05
S11307D6496E746572727570742020202020202062
S11307E620202000447A69656E20646F6272792045
S11307F6202020202020200048656C6C6F204C436C
S11308064420202020202020202020004C696E65D2
S11308162031004C696E6520320050686F6E6500A9
S1130826456E636F6465723A2020202020202020C4
S1070836202020005A
S9030000FC
