:100000000C943F000C9467000C9467000C946700FC
:100010000C9467000C9467000C9467000C946700C4
:100020000C9467000C9467000C9467000C946700B4
:100030000C9467000C9497010C9467000C94670073
:100040000C9467000C94DF000C9467000C9467001C
:100050000C9467000C9467000C9467000C94670084
:100060000C9467000C9467000C9467000C94670074
:100070000C9467000C9467000C946700D80111245D
:100080001FBECFEFD8E0DEBFCDBF11E0A0E0B1E0F2
:10009000EEE6F8E002C005900D92A233B107D9F761
:1000A00021E0A2E3B1E001C01D92AA35B207E1F759
:1000B00010E0CFE3D0E004C02197FE010E94E403EA
:1000C000CE33D107C9F70E9414030C9435040C9465
:1000D000000085B7806885BF85B7806885BF85B714
:1000E000806885BF85B7806885BF089593B183B167
:1000F0009695927083FB882780F9892B089583B1A8
:100100008295817091E089270895CF93DF93EC0168
:100110000E947F008E839F81891749F0811103C05F
:100120001982188203C09A819F5F9A838F83DF911F
:10013000CF910895FC01208131812F5F3F4F3183A2
:1001400020830E94330144E068E70C943201FC01F3
:100150002081318121503109318320830E94330174
:1001600044E068E70C943201CF93DF93EC010E94E6
:1001700076008C839D818917F9F0813011F41B8200
:1001800004C0823011F491E09B839B81911107C0E0
:10019000833029F4CE010E94A7008FEF8B838B81DF
:1001A000813041F48C81833029F4CE010E949A0081
:1001B0008FEF8B838C818D83DF91CF9108951F9278
:1001C0000F920FB60F9211242F933F934F935F938B
:1001D0006F937F938F939F93AF93BF93CF93DF934F
:1001E000EF93FF938091340190913501A0913601F6
:1001F000B0913701AC01BD014F5F5F4F6F4F7F4F33
:100200004093340150933501609336017093370168
:1002100085369105A105B10544F010923401109284
:1002200035011092360110923701C0913201D09100
:100230003301CE010E94B400CE010E948500FF91DF
:10024000EF91DF91CF91BF91AF919F918F917F916E
:100250006F915F914F913F912F910F900FBE0F9033
:100260001F90189508958091380190913901089553
:100270008FB780688FBF1092800010928500109217
:100280008400E1E8F0E080818C60808385E39CE07D
:100290009093890080938800B19AEFE6F0E0808126
:1002A000826080830895DC0154969C915497FD01EF
:1002B000E90FF11DE90FF11D718360839F5F549673
:1002C0009C930895EF92FF920F931F93CF93DF9328
:1002D0008C018091540190915501019690935501A4
:1002E000809354017801C0E0D0E0D80154968C91FD
:1002F00090E0C817D90774F4F701819191917F01BB
:10030000DC01ED91FC910190F081E02D60E0099518
:100310002196EBCFDF91CF911F910F91FF90EF903E
:10032000089580913A0190913B010C9462011F92D3
:100330000F920FB60F9211242F933F934F935F9319
:100340006F937F938F939F93AF93BF93EF93FF939D
:10035000809153018F5F809353018A3089F480919B
:100360005101909152010196909352018093510155
:10037000109253010E940F0361E070E00E940B0392
:100380000E949101FF91EF91BF91AF919F918F9149
:100390007F916F915F914F913F912F910F900FBE81
:1003A0000F901F90189580913A0190913B0108950C
:1003B000ECE3F1E0F0933B01E0933A01148A0895F5
:1003C0004698479816981598089580FF02C0469A57
:1003D00001C0469881FF02C0479A01C0479882FF3A
:1003E00002C0169A01C0169883FF02C0159A08959C
:1003F00015980895CF93C82F459A82958F700E94C3
:10040000E50187E592E00197F1F700C0000045980B
:100410000E94E001459A8C2F0E94E50187E592E059
:100420000197F1F700C00000459895E89A95F1F71B
:100430000000CF910C94E00143980E94FA010C94C3
:10044000E001439A0C94FA010F931F93CF938C0110
:10045000C62FCC2339F0F80181918F010E9421022F
:10046000C150F7CFCF911F910F9108956150633024
:1004700030F4E62FF0E0E050FF4F908101C090E0B3
:10048000890F80680C941C0281E00E941C028FE995
:100490009FE00197F1F700C00000089582E00E94FC
:1004A0001C028FE99FE00197F1F700C0000008955A
:1004B000CF933E9A3F9A0E9A0D9A3D9A3B9A3C9A58
:1004C0008FE493EC0197F1F700C000004398459842
:1004D0004498C3E0459A83E00E94E50145988FE186
:1004E0009EE40197F1F700C00000C15099F7459ACA
:1004F00082E00E94E50145988FE097E20197F1F7CD
:1005000000C0000088E20E941C0288E00E941C02D9
:1005100081E00E941C028FE097E20197F1F700C092
:10052000000086E00E941C028CE0CF910C941C021B
:10053000CF93DF93EC010E9458020E9444020E9474
:100540004E0281E08A83DF91CF910895CF93DF93AC
:1005500027E031E0FC013183208320915601309166
:100560005701232B89F490935701809356010E94E1
:100570009802C0915601D09157010E94D301BE014B
:10058000DF91CF910C945301DF91CF910895CF93D8
:10059000DF93EC010E94DF0360E00E94D90340E199
:1005A00050E0BC01CE0103960E94F1030E94DF03DC
:1005B00061E00E94D90340E150E0BC01CE014396C6
:1005C000DF91CF910C94F103CF93DF93FC01228153
:1005D0002223A1F0EC0160E080E00E94360260E19D
:1005E000CE0103960E94240261E080E00E94360260
:1005F00060E1CE0143960E9424021A82DF91CF91DE
:100600000895CF93DF93EC010E94C702CE01DF91E2
:10061000CF910C94E40221E0FC01228308958091A3
:100620005601909157010895CF93DF93CDB7DEB770
:10063000C654D1090FB6F894DEBF0FBECDBFCE01B0
:1006400084960E943203CE0101960E94A6020E9467
:1006500069008FE39CE90197F1F700C000000E9458
:100660003801FFCFCF93DF93EC018FE291E09983C4
:100670008883D0935901C0935801DE01139681E11C
:10068000FD01982F11929A95E9F79E012D5E3F4F3B
:10069000F90111928A95E9F780E1E9E0F1E0019032
:1006A0000D928A95E1F780E1EAE1F1E0D90101904C
:1006B0000D928A95E1F70E94D301BE01DF91CF919F
:1006C0000C945301AF92BF92DF92EF92FF920F937F
:1006D0001F93CF93DF9300D000D01F92CDB7DEB72A
:1006E0007C01D62E5A0145E050E061E070E08E01B9
:1006F0000F5F1F4FC8010E94EA034AE0B801C5011D
:100700000E9400048FE0D1101FC0E9E0F1E0D701A2
:10071000139601900D928A95E1F720E0F80101907F
:100720000020E9F73197E01BF10B822F90E08E1744
:100730009F0748F5F701E80FF91FD801A80FB91F67
:100740008C9186832F5FEACFEAE1F1E0D7015396DF
:1007500001900D928A95E1F720E0F80101900020C8
:10076000E9F73197E01BF10B822F90E08E179F077E
:1007700050F4F701E80FF91FD801A80FB91F8C91A9
:10078000868B2F5FEACF0F900F900F900F900F90F6
:10079000DF91CF911F910F91FF90EF90DF90BF906D
:1007A000AF900895409154015091550160E00C9430
:1007B0006203611102C003960895439608958091E3
:1007C0005801909159010895EE0FFF1F0590F49183
:1007D000E02D0994DC0101C06D9341505040E0F7D9
:1007E0000895FB01DC014150504048F001900D920A
:1007F0000020C9F701C01D9241505040E0F7089514
:10080000BB274A3031F4992322F4BDE290958195BB
:100810009F4F0C940C04BB27FB015527AA27880F78
:10082000991FAA1FA41710F0A41B83955051B9F764
:10083000A05DAA3308F0A95DA193009779F7B111E3
:10084000B1931192CB010C942504DC01FC01672FBC
:1008500071917723E1F7329704C07C916D93708397
:0E0860006291AE17BF07C8F30895F894FFCF5A
:10086E0040145400000000010356733D2020202048
:10087E002020563D20202020200049733D2020209E
:10088E00202020493D20202020200000000000D202
:02089E00030055
:00000001FF
