S0110000416D704472697665722E7372656389
S11300000C9440000C9468000C9468000C946800F4
S11300100C9468000C9468000C9468000C946800BC
S11300200C9468000C94A10A0C9468000C94680069
S11300300C9468000C9453040C9468000C946800AD
S11300400C9468000C9463030C9468000C9468008E
S11300500C9468000C9468000C9468000C9468007C
S11300600C9468000C9468000C9468000C9468006C
S11300700C9468000C9468000C94680017087B08C2
S113008011241FBECFEFD8E0DEBFCDBF11E0A0E04A
S1130090B1E0EEEAF8E102C005900D92AE36B10788
S11300A0D9F721E0AEE6B1E001C01D92A53EB2074A
S11300B0E1F710E0CFE3D0E004C02197FE010E94F5
S11300C0F90BCE33D107C9F70E94D6050C944A0C1C
S11300D00C940000CF93DF93EC010A960E942E0B40
S11300E0198218821B821A821D821C821F821E8220
S11300F0DF91CF910895AF92BF92CF92DF92EF92AA
S1130100FF920F931F93CF93DF93CDB7DEB7AC97D6
S11301100FB6F894DEBF0FBECDBF8C016B015A0140
S11301207C014AE0E40EF11CC7010E94C60BD80111
S11301301996BC92AE9218971496AD90BC901597F0
S11301401296ED91FC9113972D913C916CE36A9D6D
S1130150A0016B9D500D1124A0E1BEE0EA9FC001F7
S1130160EB9F900DFA9F900D1124840F951F40EA88
S113017055E0249FD001259FB00D349FB00D11246C
S11301806A9FA0016B9F500D1124840F951FA60137
S1130190481B590BCA01D80117965C934E931697C6
S11301A0009791F06CE370E00E94D10B892B61F40D
S11301B0BFEFAB1ABB0AD8011596BC92AE92149746
S11301C017961C921E921697D80114968D919C91A5
S11301D01597009781F06CE370E00E94D10B892B96
S11301E051F43196D8011396FC93EE931297159619
S11301F01C921E921497F80182819381009761F0FA
S113020068E170E00E94D10B892B31F42F5F3F4FDE
S11302103183208313821282B801C7010E94910B9B
S1130220BC01C7010E944C0B64E471E0CE0101964D
S11302300E94320BBE016F5F7F4FC7010E94670BA4
S1130240BC01C7010E944C0BCE0101960E944B0BCE
S1130250D80112968D919C9113970A97A4F466E1A4
S113026071E0CE0101960E94320BBE016F5F7F4F99
S1130270C7010E94670BBC01C7010E944C0BCE0151
S113028001960E944B0BB8016E5F7F4FC7010E941D
S1130290910BBC01C7010E944C0B64E471E0CE01D8
S11302A001960E94320BBE016F5F7F4FC7010E940F
S11302B0670BBC01C7010E944C0BCE0101960E9442
S11302C04B0BF801848195810A97A4F466E171E0EF
S11302D0CE0101960E94320BBE016F5F7F4FC701B2
S11302E00E94670BBC01C7010E944C0BCE01019612
S11302F00E944B0BB8016C5F7F4FC7010E94910BAA
S1130300BC01C7010E944C0B64E471E0CE0101966C
S11303100E94320BBE016F5F7F4FC7010E94670BC3
S1130320BC01C7010E944C0BCE0101960E944B0BED
S1130330D80116968D919C9117970A97A4F466E1BB
S113034071E0CE0101960E94320BBE016F5F7F4FB8
S1130350C7010E94670BBC01C7010E944C0BCE0170
S113036001960E944B0BB8016A5F7F4FC7010E9440
S1130370910BBC01C7010E944C0B64E471E0CE01F7
S113038001960E94320BBE016F5F7F4FC7010E942E
S1130390670BB801685F7F4F0E94910BBC01C701D6
S11303A00E944C0BCE0101960E944B0BAC960FB6EB
S11303B0F894DEBF0FBECDBFDF91CF911F910F9197
S11303C0FF90EF90DF90CF90BF90AF900895CF93C0
S11303D0DF93EC010E947B00CE010A96DF91CF915E
S11303E00C94C40B85B7806885BF85B7806885BFCA
S11303F085B7806885BF0895EF92FF920F931F938E
S1130400CF93DF93EC0185E0FB01DE01949601902C
S11304100D928A95E1F785E0FA01DE019996019043
S11304200D928A95E1F77E0124E2E20EF11C61E06F
S1130430C7010E9498098E01075D1F4F61E0C80142
S11304400E94980960E0C7010E94D30960E0C801D6
S11304500E94D309CE01019618E0FC01212F1192CC
S11304602A95E9F768E171E00E94FF0B1882CE013A
S11304700A96FC01212F11922A95E9F76FE171E0A8
S11304800E94FF0B81E08987CE014396FC01212F56
S113049011922A95E9F766E271E00E94FF0B82E06F
S11304A08A8BCE014C96FC0111921A95E9F76CE205
S11304B071E00E94FF0B83E08B8FDF91CF911F913E
S11304C00F91FF90EF9008950895EF92FF920F938C
S11304D01F93CF93DF93EC017A0189010E9497095E
S11304E0B701CE0105960E949709B801CE010A967C
S11304F0DF91CF911F910F91FF90EF900C9497098A
S113050014BC16BC85B5836085BD84E188BDB29AF0
S1130510EEE6F0E08081846080830895FC018081B0
S11305209181089580916E0190916F01089593B126
S113053083B19695927083FB882780F9892B08955F
S113054083B18695817091E089270895CF93DF93D5
S1130550EC0185B795B78071892785BF84B194B1C3
S11305608270892784B984B194B18470892784B94D
S113057084B194B18870892784B993B123B1892F48
S113058090E08095909582709927822783B993B1E2
S113059023B1892F90E080959095847099278227C4
S11305A083B993B123B1892F90E080959095887099
S11305B09927822783B9CE010E9497028C83CE01AA
S11305C00E94A0028E83CE010E94A0028E839C8191
S11305D09D838F83198218821B821A82D0936F01A4
S11305E0C0936E01DF91CF910895FC012081318188
S11305F02F5F3F4F318320830E947F080C945F0953
S1130600FC012081318121503109318320830E94F2
S11306107F080C946F09CF93DF93EC010E9497023B
S11306208C839D818917F9F0813011F41B8204C0F9
S1130630823011F491E09B839B81911107C0833038
S113064029F4CE010E9400038FEF8B838B818130CC
S113065041F48C81833029F4CE010E94F5028FEF9E
S11306608B838C818D83DF91CF910895FC0111825E
S113067010820E947F080C9485080E947F080C94C5
S11306808408FC0192819F5F92830E947F080C94EE
S11306904B09CF93DF93EC010E94A0028E839F81CC
S11306A0891771F0811107C0CE010E943D03CE016C
S11306B00E94360303C0CE010E9441038E818F83C2
S11306C0DF91CF9108951F920F920FB60F921124CC
S11306D02F933F934F935F936F937F938F939F9346
S11306E0AF93BF93CF93DF93EF93FF938091700108
S11306F090917101A0917201B0917301AC01BD019F
S11307004F5F5F4F6F4F7F4F409370015093710164
S1130710609372017093730185369105A105B1054B
S113072044F01092700110927101109272011092B3
S11307307301C0916E01D0916F01CE010E940B0331
S1130740CE010E944903FF91EF91DF91CF91BF91B8
S1130750AF919F918F917F916F915F914F913F9155
S11307602F910F900FBE0F901F901895FC0182815E
S1130770089580FF02C0429A01C0429881FF02C0DE
S1130780439A01C0439882FF02C0449A01C044982E
S113079083FF02C0459A089545980895CF93C82FC2
S11307A0409A82958F700E94B9034098409A8C2F8A
S11307B00E94B903409885E88A95F1F70000CF912B
S11307C0089541980C94CE03419A0C94CE03CF9390
S11307D0DF93EC018991882319F00E94E403FACF96
S11307E0DF91CF9108956150633030F4E62FF0E04B
S11307F0E05DFE4F908101C090E0890F80680C9409
S1130800E10381E00E94E1038FE99FE00197F1F7A2
S113081000C00000089582E00E94E1038FE99FE098
S11308200197F1F700C000000895CF933A9A3B9ADC
S11308303C9A3D9A389A399A8FE493EC0197F1F7F0
S113084000C0000041984098C3E0409A83E00E94B1
S1130850B90340988FE19EE40197F1F700C00000CE
S1130860C15099F7409A82E00E94B90340988FE002
S113087097E20197F1F700C0000088E20E94E103CB
S113088088E00E94E10381E00E94E1038FE097E2A7
S11308900197F1F700C0000086E00E94E1038CE0BC
S11308A0CF910C94E1031F920F920FB60F92112473
S11308B08F939F93AF93BF93809178019091790127
S11308C0A0917A01B0917B010196A11DB11D809385
S11308D0780190937901A0937A01B0937B010A97F0
S11308E0A105B105D9F48091740190917501A0918D
S11308F07601B09177010196A11DB11D8093740119
S113090090937501A0937601B093770110927801CA
S11309101092790110927A0110927B01BF91AF91EC
S11309209F918F910F900FBE0F901F9018958FB7C6
S113093080688FBF1092800010928500109284000E
S1130940E1E8F0E080818C60808385E39CE0909313
S1130950890080938800B19AEFE6F0E0808182609C
S113096080830895CF93DF93EC018881882349F035
S113097060E080E00E94F303CE0105960E94E70345
S113098018828981882349F061E080E00E94F303A2
S1130990CE014A960E94E70319828A81882349F08E
S11309A062E080E00E94F303CE018F960E94E70389
S11309B01A828B81882351F063E080E00E94F30364
S11309C0CE018C5B9F4F0E94E7031B82DF91CF9186
S11309D008950F931F93CF93DF938C01822F90E0A0
S11309E044E150E0481B590B9C0120503F4F75E1F6
S11309F0679FE00111248C0F9D1F0596B901800F9C
S1130A00911F0E94060CC00FD11F198EDF91CF9148
S1130A101F910F910895CF93DF93EC0118821982EF
S1130A201A821B8290937D0180937C0120E044E133
S1130A3062E00E94E90420E044E163E0CE010E9408
S1130A40E904FE01359684E1DF01982F1D929A9501
S1130A50E9F76A96DE011D928A95E9F7DF91CF9155
S1130A6008958F929F92AF92BF92CF92DF92EF92AE
S1130A70FF920F931F93CF93DF938C015A01922E11
S1130A80FA0101900020E9F73197E41BF50B822E5F
S1130A908E0EE62EF12C85E1689F60011124F6018B
S1130AA03596E00FF11FEF0109900020E9F7219737
S1130AB0CE1BDF0B482DC8010E94E904292D30E02C
S1130AC043E150E0421B530BC601820F931F05966E
S1130AD0B501800F911F0E94060C882D90E0AE0195
S1130AE05527481B590B141615064CF48C0D9D1DE7
S1130AF0059663E371E0800F911F0E94060CF801D4
S1130B00EE0DFF1D81E08083DF91CF911F910F9146
S1130B10FF90EF90DF90CF90BF90AF909F908F9019
S1130B200895CF92DF92EF92FF920F931F93CF938A
S1130B30DF93EC01C62ECA01D22E7E0129E5E20E16
S1130B40F11C4AE0B7010E94150CF7010190002046
S1130B50E9F731978F010E191F092D2D402F6C2DA8
S1130B60CE010E94E904A80155270C2D10E08D2D1B
S1130B7090E025E1C29E800D911D11240596B701D8
S1130B808C0F9D1F0E94060CC00FD11F81E088832B
S1130B90DF91CF911F910F91FF90EF90DF90CF9055
S1130BA0089580917C0190917D010895CF93DF9306
S1130BB0CDB7DEB7C450D3400FB6F894DEBF0FBE36
S1130BC0CDBF61E0CE018C599F4F0E94E70926E01A
S1130BD048E250E067E270E0CE018C599F4F0E94DA
S1130BE0210B44E160E0CE018C599F4F0E94250AFD
S1130BF0CE0101960E940B050E94F2018FE39CE94D
S1130C000197F1F700C000000E9415040E9401043E
S1130C100E940B04E12CF12C0EE311E020E040E0F3
S1130C2060E0CE0180549D4F0E94860884ECE82E3B
S1130C30FF24FA9406E411E021E040E061E0CE01F3
S1130C4085579D4F0E948608E12CF12C09E411E0A0
S1130C5020E041E060E0CE018A5A9D4F0E94860860
S1130C6000E511E020E041E061E0CE018F5D9D4FA1
S1130C700E94860806E511E020E041E061E0CE0133
S1130C8084519E4F0E9486080CE511E020E041E06B
S1130C9061E0CE0189549E4F0E94860802E611E06D
S1130CA020E041E061E0CE018E579E4F0E9486080D
S1130CB008E611E020E042E060E0CE01835B9E4F55
S1130CC00E94860800E511E020E042E061E0CE01E8
S1130CD0885E9E4F0E94860806E511E020E042E00F
S1130CE061E0CE018D519F4F0E948608BE01655779
S1130CF07D4FCE0180549D4F0E948B09BE016A5ADC
S1130D007D4FCE0180549D4F0E947F09BE01635BDD
S1130D107E4FCE0180549D4F0E94830960E070E0B5
S1130D20CE0180549D4F0E948709BE0160547D4FBF
S1130D30CE0185579D4F0E948709BE016F5D7D4F8F
S1130D40CE018A5A9D4F0E948B09BE01635B7E4F80
S1130D50CE018A5A9D4F0E947F09BE0160547D4F87
S1130D60CE018A5A9D4F0E94830960E070E0CE0153
S1130D708A5A9D4F0E94870960E070E0CE018F5D22
S1130D809D4F0E948B09BE0164517E4FCE018F5D41
S1130D909D4F0E947F09BE016E577E4FCE018F5D2D
S1130DA09D4F0E948309BE016A5A7D4FCE018F5D1B
S1130DB09D4F0E94870960E070E0CE0184519E4FF0
S1130DC00E948B09BE0169547E4FCE0184519E4F0F
S1130DD00E947F09BE016F5D7D4FCE0184519E4FFD
S1130DE00E948309BE016A5A7D4FCE0184519E4FF1
S1130DF00E94870960E070E0CE0189549E4F0E94F2
S1130E008B09BE016E577E4FCE0189549E4F0E94BE
S1130E107F09BE0164517E4FCE0189549E4F0E94CA
S1130E208309BE016A5A7D4FCE0189549E4F0E94A8
S1130E30870960E070E0CE018E579E4F0E948B09B7
S1130E40BE016F5D7D4FCE018E579E4F0E947F097C
S1130E50BE0169547E4FCE018E579E4F0E94830976
S1130E60BE016A5A7D4FCE018E579E4F0E9487095C
S1130E70BE01685E7E4FCE01835B9E4F0E948B094C
S1130E80BE0160547D4FCE01835B9E4F0E947F095B
S1130E90BE016A5A7D4FCE01835B9E4F0E94830937
S1130EA060E070E0CE01835B9E4F0E94870960E0A2
S1130EB070E0CE01885E9E4F0E948B09BE016D5189
S1130EC07F4FCE01885E9E4F0E947F09BE016D5107
S1130ED07F4FCE01885E9E4F0E948309BE01635BF3
S1130EE07E4FCE01885E9E4F0E94870960E070E0CD
S1130EF0CE018D519F4F0E948B09BE01685E7E4FCB
S1130F00CE018D519F4F0E947F09BE01685E7E4FC6
S1130F10CE018D519F4F0E948309BE01635B7E4FBA
S1130F20CE018D519F4F0E948709BE0160547D4FB1
S1130F30CE0183509D4F0E943709CE0183559F4FA8
S1130F400E946A00CD5FDC4F19821882C350D340DF
S1130F50CF5FDC4F19821882C150D340CE018B5031
S1130F609D4F0E94A6020E9497040E9480027894DA
S1130F700E9492028C018091700190917101A09164
S1130F807201B0917301892B8A2B8B2BA1F7C801B5
S1130F900E94B60390E0CF5FDC4F99838883C150F1
S1130FA0D340C0907801D0907901E0907A01F0901C
S1130FB07B0160917401709175018091760190912B
S1130FC07701A601CE0183559F4F0E94E70124E0DB
S1130FD0AC0162E0CE0101960E943105C8010E9475
S1130FE08E0220E0AC0163E0CE0101960E949105DF
S1130FF04091DD015091DE016091DF017091E001CB
S113100025E063E0CE0101960E949105CF5FDC4F9D
S113101048815981C150D3402AE063E0CE01019652
S11310200E949105CE0101960E94B204A4CF0F93B1
S1131030CF93DF93CDB7DEB72F970FB6F894DEBF0B
S11310400FBECDBF20B142B161B100E084ED91E0AB
S11310500E948F0920B142B161B101E08FEC91E0AF
S11310600E948F0920B142B161B102E08AEC91E0A3
S11310700E948F096AEC71E0CE010B960E949709D9
S11310806FEC71E0CE0106960E94970964ED71E061
S1131090CE0101960E9497099E01255F3F4FAE0144
S11310A04A5F5F4FBE016F5F7F4F86EB91E00E9406
S11310B0650220B142B161B103E081EB91E00E948D
S11310C08F0920B142B161B104E08CEA91E00E9441
S11310D08F094CEA51E061EB71E08EE791E00E94E8
S11310E0FC012F960FB6F894DEBF0FBECDBFDF9183
S11310F0CF910F9108958EE791E00C946402809152
S1131100D9019091DA01089508950895EF92FF921C
S11311100F931F93CF93DF93EC01688349832E8F42
S1131120FCAAEBAA44E150E0B8014F960E94060CD9
S11311301B821A821D821C821F821E8219861886B7
S1131140DF91CF911F910F91FF90EF900895FC01D3
S113115082819381009731F423A934A92F5F3F4FF3
S113116034AB23AB0895FC0184819581009731F45D
S113117023A934A92150310934AB23AB0895EF924C
S1131180FF920F931F93CF93DF93EC018A819B818E
S11311908E01015E1F4F892B11F0C80129C08BA954
S11311A09CA997FD04C02BE22A87E1E001C0E0E09E
S11311B0EE2EF12CB701665F7F4F6C0F7D1F4AE066
S11311C00E94150CFC0101900020E9F73197E81BFF
S11311D0F90BEE0DFF1D44E150E04E1B5F0BCF01F8
S11311E00A96B8018C0F9D1F0E94060CCE010A9628
S11311F0DF91CF911F910F91FF90EF9008950F937E
S11312001F93CF93DF938C010E94D105EC01D80189
S11312101296ED91FC91139780859185009781F446
S1131220AF01415E5F4F20E060E0CE010E943105D6
S1131230D8011296ED91FC911397868197810BC08A
S1131240AC01415E5F4F20E060E0CE010E943105B9
S1131250F801828193810E94BF0820E0AC0161E023
S1131260CE01DF91CF911F910F910C943105FC01B8
S1131270718360839093DA018093D901FB01268105
S113128037812115310511F420853185FC01338323
S113129022830C94FF08DC011296ED91FC911397C4
S11312A0268137812115310529F4208531852115C1
S11312B0310519F0FC01338322830C94FF08CF938A
S11312C0DF93EC018A819B810E94A708009711F0AB
S11312D09B838A83CE01DF91CF910C94FF08CF9337
S11312E0DF93EC018A819B810E94B308009711F07F
S11312F09B838A83CE01DF91CF910C94FF08FC017C
S1131300738362830895FC01758364830895FC01EB
S1131310718760870895FC017783668308950F932E
S1131320FC0160834183228303830F910895089510
S1131330FC0181E0611101C080E084836623B1F087
S1131340208181E090E0A0E0B0E0038004C0880F39
S1131350991FAA1FBB1F0A94D2F7322F3095382346
S1131360232720838095918189231BC085B795B756
S11313708071892785BF81E090E0A0E0B0E0038020
S113138004C0880F991FAA1FBB1F0A94D2F7282FE5
S113139020953081232320832181322F309583238C
S11313A0822781830895FC018481882379F08281D6
S11313B0662349F021E030E0038002C0220F331F8E
S11313C00A94E2F701C020E0282B22830895FC014F
S11313D031969C01275B3F4F138212823996E217A4
S11313E0F307D1F7FC0110829093DC018093DB01B9
S11313F01092E1011092E2011092E3011092E401D3
S11314001092DD011092DE011092DF011092E001D2
S1131410F8948091B00082608093B0008091B10014
S113142085608093B1001092B2008AEA8093B30081
S1131430B99A8091700082608093700085B795B7E7
S11314408071892785BF78940895FC0129E06202A0
S1131450E00DF11D112420E14202C001112464E6D3
S113146070E00E94D10B63830895FC01862F90E005
S1131470A0E0B0E08093DD019093DE01A093DF0152
S1131480B093E00182819FEF980F9F3018F56111AE
S11314900DC0A481B5812C9181E090E0008402C04C
S11314A0880F991F0A94E2F7822B8C9370E0828153
S11314B0082E000C990B6817790719F5A481B581DA
S11314C02C9181E090E0008402C0880F991F0A9457
S11314D0E2F70CC0A481B58130852C91811109C03B
S11314E081E090E001C0880F3A95EAF78095822365
S11314F007C081E090E001C0880F3A95EAF7822B9B
S11315008C930895FF920F931F93CF93DF938C01D5
S1131510D62FC0E089E0F82EF8018081C81758F46E
S1131520C801FC9E800D911D11246D2F01960E940F
S1131530350ACF5FF1CFDF91CF911F910F91FF90CB
S113154008951F920F920FB60F9211242F933F9379
S11315504F935F936F937F938F939F93AF93BF93B7
S1131560EF93FF938091E1019091E201A091E30157
S1131570B091E4010196A11DB11D8093E101909306
S1131580E201A093E301B093E4018091E101909121
S1131590E201A091E301B091E4014197A105B105F5
S11315A044F01092E1011092E2011092E3011092D2
S11315B0E4016091E1017091E2018091E301909175
S11315C0E4018091DB019091DC010E94820AFF9189
S11315D0EF91BF91AF919F918F917F916F915F91A7
S11315E04F913F912F910F900FBE0F901F90189520
S11315F0CF93DF93DC01EB01FA0117967C936E9392
S1131600169715965C934E93149718962C933881DD
S113161081E090E0A0E0B0E004C0880F991FAA1F09
S1131620BB1F2A95D2F74881232F209528232427EE
S1131630288330812081832382278083DF91CF9187
S11316400895DC013C91E1E0E30FEC93B9E03B9FAA
S1131650800D911D112401960C94F80AFC0111824D
S113166010820895FB0101900020E9F73197E61BF1
S1131670F70BE932F10524F4DC01ED93FC9305C08A
S113168028E230E0FC0131832083DC014D915D913F
S1131690CD010C94060C08950F931F93CF93DF9301
S11316A08C01FB01C081C93208F0C8E2D0E06E5F52
S11316B07F4FAE01C80102960E94060CF801D18347
S11316C0C083C801DF91CF911F910F9108950F93AB
S11316D01F93CF93DF938C01FB01C081D181FC0167
S11316E0808191819E01280F391F2932310524F010
S11316F0C8E2D0E0C81BD90B6E5F7F4F0296AE01E3
S1131700800F911F0E94060CF80180819181C80FFF
S1131710D91FD183C083C801DF91CF911F910F914D
S113172008950F931F93CF93DF93CDB7DEB7E09760
S11317300FB6F894DEBF0FBECDBF8C01FB014AE0AB
S1131740BE01635D7F4F808191810E94150CBE01B3
S1131750635D7F4FCE0101960E94320BBE016F5F25
S11317607F4FC8010E94670BBC01C8010E944C0B4B
S1131770C801E0960FB6F894DEBF0FBECDBFDF916F
S1131780CF911F910F91089502960895FC0132960E
S113179028E2DF011D922A95E9F7FC0111821082EB
S11317A0089597FB072E16F4009407D077FD09D00F
S11317B00E94E50B07FC05D03EF4909581959F4F60
S11317C00895709561957F4F0895AA1BBB1B51E145
S11317D007C0AA1FBB1FA617B70710F0A61BB70B9D
S11317E0881F991F5A95A9F780959095BC01CD0142
S11317F00895EE0FFF1F0590F491E02D0994FB016D
S1131800DC0101900D920020E1F70895FB01DC0159
S11318104150504048F001900D920020C9F701C09A
S11318201D9241505040E0F70895BB274A3031F4EF
S1131830992322F4BDE2909581959F4F0C94210C3D
S1131840BB27FB015527AA27880F991FAA1FA41796
S113185010F0A41B83955051B9F7A05DAA3308F08A
S1131860A95DA193009779F7B111B1931192CB01BE
S11318700C943A0CDC01FC01672F71917723E1F79A
S1131880329704C07C916D9370836291AE17BF0749
S1131890C8F3089510E0CFE3D0E004C0FE010E9435
S11118A0F90B2196C034D107C9F7F894FFCF95
S11318AE2020202020202020202020202020202026
S11318BE20202020000030004C696E652031004C41
S11318CE696E6520320050686F6E650044414300B6
S11318DE4014542020202020202020202000566F49
S11318EE6C756D653A00644200496E7075743A0009
S11318FE4C696E6531004C696E6532004C696E65DB
S111190E33004C696E653400496E666F3A0012
S9030000FC
