:100000000C9440000C9468000C9468000C946800F8
:100010000C9468000C9468000C9468000C946800C0
:100020000C9468000C940C0B0C9468000C94680001
:100030000C9468000C9453040C9468000C946800B1
:100040000C9468000C9463030C9468000C94680092
:100050000C9468000C9468000C9468000C94680080
:100060000C9468000C9468000C9468000C94680070
:100070000C9468000C9468000C9468004D08B1085A
:1000800011241FBECFEFD8E0DEBFCDBF11E0A0E04E
:10009000B1E0EAE8F9E102C005900D92AE37B10790
:1000A000D9F721E0AEE7B1E001C01D92A53FB2074C
:1000B000E1F710E0CFE3D0E004C02197FE010E94F9
:1000C000670CCE33D107C9F70E94D6050C94B80C43
:1000D0000C940000CF93DF93EC010A960E949C0BD6
:1000E000198218821B821A821D821C821F821E8224
:1000F000DF91CF910895AF92BF92CF92DF92EF92AE
:10010000FF920F931F93CF93DF93CDB7DEB7AC97DA
:100110000FB6F894DEBF0FBECDBF8C016B015A0144
:100120007C014AE0E40EF11CC7010E94340CD801A6
:100130001996BC92AE9218971496AD90BC901597F4
:100140001296ED91FC9113972D913C916CE36A9D71
:10015000A0016B9D500D1124A0E1BEE0EA9FC001FB
:10016000EB9F900DFA9F900D1124840F951F40EA8C
:1001700055E0249FD001259FB00D349FB00D112470
:100180006A9FA0016B9F500D1124840F951FA6013B
:10019000481B590BCA01D80117965C934E931697CA
:1001A000009791F06CE370E00E943F0C892B61F4A2
:1001B000BFEFAB1ABB0AD8011596BC92AE9214974A
:1001C00017961C921E921697D80114968D919C91A9
:1001D0001597009781F06CE370E00E943F0C892B2B
:1001E00051F43196D8011396FC93EE93129715961D
:1001F0001C921E921497F80182819381009761F0FE
:1002000068E170E00E943F0C892B31F42F5F3F4F73
:100210003183208313821282B801C7010E94FF0B31
:10022000BC01C7010E94BA0B64E471E0CE010196E3
:100230000E94A00BBE016F5F7F4FC7010E94D50BCC
:10024000BC01C7010E94BA0BCE0101960E94B90BF6
:10025000D80112968D919C9113970A97A4F466E1A8
:1002600071E0CE0101960E94A00BBE016F5F7F4F2F
:10027000C7010E94D50BBC01C7010E94BA0BCE0179
:1002800001960E94B90BB8016E5F7F4FC7010E94B3
:10029000FF0BBC01C7010E94BA0B64E471E0CE0100
:1002A00001960E94A00BBE016F5F7F4FC7010E94A5
:1002B000D50BBC01C7010E94BA0BCE0101960E946A
:1002C000B90BF801848195810A97A4F466E171E085
:1002D000CE0101960E94A00BBE016F5F7F4FC70148
:1002E0000E94D50BBC01C7010E94BA0BCE0101963A
:1002F0000E94B90BB8016C5F7F4FC7010E94FF0BD2
:10030000BC01C7010E94BA0B64E471E0CE01019602
:100310000E94A00BBE016F5F7F4FC7010E94D50BEB
:10032000BC01C7010E94BA0BCE0101960E94B90B15
:10033000D80116968D919C9117970A97A4F466E1BF
:1003400071E0CE0101960E94A00BBE016F5F7F4F4E
:10035000C7010E94D50BBC01C7010E94BA0BCE0198
:1003600001960E94B90BB8016A5F7F4FC7010E94D6
:10037000FF0BBC01C7010E94BA0B64E471E0CE011F
:1003800001960E94A00BBE016F5F7F4FC7010E94C4
:10039000D50BB801685F7F4F0E94FF0BBC01C701FE
:1003A0000E94BA0BCE0101960E94B90BAC960FB613
:1003B000F894DEBF0FBECDBFDF91CF911F910F919B
:1003C000FF90EF90DF90CF90BF90AF900895CF93C4
:1003D000DF93EC010E947B00CE010A96DF91CF9162
:1003E0000C94320C85B7806885BF85B7806885BF5F
:1003F00085B7806885BF0895EF92FF920F931F9392
:10040000CF93DF93EC0185E0FB01DE019496019030
:100410000D928A95E1F785E0FA01DE019996019047
:100420000D928A95E1F77E0124E2E20EF11C61E073
:10043000C7010E94F9098E01075D1F4F61E0C801E5
:100440000E94F90960E0C7010E94340A60E0C80117
:100450000E94340ACE01019618E0FC01212F11926E
:100460002A95E9F768E171E00E946D0C1882CE01CF
:100470000A96FC01212F11922A95E9F76FE171E0AC
:100480000E946D0C81E08987CE014396FC01212FEB
:1004900011922A95E9F766E271E00E946D0C82E004
:1004A0008A8BCE014C96FC0111921A95E9F76CE209
:1004B00071E00E946D0C83E08B8FDF91CF911F91D3
:1004C0000F91FF90EF9008950895EF92FF920F9390
:1004D0001F93CF93DF93EC017A0189010E94F80901
:1004E000B701CE0105960E94F809B801CE010A961F
:1004F000DF91CF911F910F91FF90EF900C94F8092D
:1005000014BC16BC85B5836085BD84E188BDB29AF4
:10051000EEE6F0E08081846080830895FC018081B4
:100520009181089580917E0190917F01089593B10A
:1005300083B19695927083FB882780F9892B089563
:1005400083B18695817091E089270895CF93DF93D9
:10055000EC0185B795B78071892785BF84B194B1C7
:100560008270892784B984B194B18470892784B951
:1005700084B194B18870892784B993B123B1892F4C
:1005800090E08095909582709927822783B993B1E6
:1005900023B1892F90E080959095847099278227C8
:1005A00083B993B123B1892F90E08095909588709D
:1005B0009927822783B9CE010E9497028C83CE01AE
:1005C0000E94A0028E83CE010E94A0028E839C8195
:1005D0009D838F83198218821B821A82D0937F0198
:1005E000C0937E01DF91CF910895FC01208131817C
:1005F0002F5F3F4F318320830E94B5080C94BB09C5
:10060000FC012081318121503109318320830E94F6
:10061000B5080C94CB09CF93DF93EC010E949702AD
:100620008C839D818917F9F0813011F41B8204C0FD
:10063000823011F491E09B839B81911107C083303C
:1006400029F4CE010E9400038FEF8B838B818130D0
:1006500041F48C81833029F4CE010E94F5028FEFA2
:100660008B838C818D83DF91CF910895FC01118262
:1006700010820E94B5080C94BB080E94B5080C9427
:10068000BA08FC0192819F5F92830E94B5080C9486
:10069000A709CF93DF93EC010E94A0028E839F8174
:1006A000891771F0811107C0CE010E943D03CE0170
:1006B0000E94360303C0CE010E9441038E818F83C6
:1006C000DF91CF9108951F920F920FB60F921124D0
:1006D0002F933F934F935F936F937F938F939F934A
:1006E000AF93BF93CF93DF93EF93FF9380918001FC
:1006F00090918101A0918201B0918301AC01BD0173
:100700004F5F5F4F6F4F7F4F409380015093810148
:10071000609382017093830185369105A105B1052F
:1007200044F0109280011092810110928201109287
:100730008301C0917E01D0917F01CE010E940B0305
:10074000CE010E944903FF91EF91DF91CF91BF91BC
:10075000AF919F918F917F916F915F914F913F9159
:100760002F910F900FBE0F901F901895FC01828162
:10077000089580FF02C0429A01C0429881FF02C0E2
:10078000439A01C0439882FF02C0449A01C0449832
:1007900083FF02C0459A089545980895CF93C82FC6
:1007A000409A82958F700E94B9034098409A8C2F8E
:1007B0000E94B903409885E88A95F1F70000CF912F
:1007C000089541980C94CE03419A0C94CE03CF9394
:1007D000DF93EC018991882319F00E94E403FACF9A
:1007E000DF91CF9108956150633030F4E62FF0E04F
:1007F000E05DFE4F908101C090E0890F80680C940D
:10080000E10381E00E94E1038FE99FE00197F1F7A6
:1008100000C00000089582E00E94E1038FE99FE09C
:100820000197F1F700C000000895CF933A9A3B9AE0
:100830003C9A3D9A389A399A8FE493EC0197F1F7F4
:1008400000C0000041984098C3E0409A83E00E94B5
:10085000B90340988FE19EE40197F1F700C00000D2
:10086000C15099F7409A82E00E94B90340988FE006
:1008700097E20197F1F700C0000088E20E94E103CF
:1008800088E00E94E10381E00E94E1038FE097E2AB
:100890000197F1F700C0000086E00E94E1038CE0C0
:1008A000CF910C94E1031F920F920FB60F92112477
:1008B0008F939F93AF93BF9380918801909189010B
:1008C000A0918A01B0918B010196A11DB11D809369
:1008D000880190938901A0938A01B0938B010A97B4
:1008E000A105B105D9F48091840190918501A09171
:1008F0008601B09187010196A11DB11D80938401ED
:1009000090938501A0938601B0938701109288018E
:100910001092890110928A0110928B01BF91AF91C0
:100920009F918F910F900FBE0F901F9018958FB7CA
:1009300080688FBF10928000109285001092840012
:10094000E1E8F0E080818C60808385E39CE0909317
:10095000890080938800B19AEFE6F0E080818260A0
:1009600080830895CF93DF93EC018881882349F039
:1009700060E080E00E94F303CE0105960E94E70349
:1009800018828981882349F061E080E00E94F303A6
:10099000CE014A960E94E70319828A81882349F092
:1009A00062E080E00E94F303CE018F960E94E7038D
:1009B0001A828B81882351F063E080E00E94F30368
:1009C000CE018C5B9F4F0E94E7031B82DF91CF918A
:1009D00008950F931F93CF93DF938C01822F90E0A4
:1009E00044E150E0481B590B9C0120503F4F75E1FA
:1009F000679FE00111248C0F9D1F0596B901800FA0
:100A0000911F0E94740CC00FD11F198EDF91CF91DE
:100A10001F910F910895CF93DF93EC0118821982F3
:100A20001A821B8290938D0180938C0120E044E117
:100A300062E00E94E90420E044E163E0CE010E940C
:100A4000E904FE01359684E1DF01982F1D929A9505
:100A5000E9F76A96DE011D928A95E9F7DF91CF9159
:100A600008958F929F92AF92BF92CF92DF92EF92B2
:100A7000FF920F931F93CF93DF938C015A01922E15
:100A8000FA0101900020E9F73197E41BF50B822E63
:100A90008E0EE62EF12C85E1689F60011124F6018F
:100AA0003596E00FF11FEF0109900020E9F721973B
:100AB000CE1BDF0B482DC8010E94E904292D30E030
:100AC00043E150E0421B530BC601820F931F059672
:100AD000B501800F911F0E94740C882D90E0AE012B
:100AE0005527481B590B141615064CF48C0D9D1DEB
:100AF000059663E371E0800F911F0E94740CF8016A
:100B0000EE0DFF1D81E08083DF91CF911F910F914A
:100B1000FF90EF90DF90CF90BF90AF909F908F901D
:100B20000895CF92DF92EF92FF920F931F93CF938E
:100B3000DF93EC01C62ECA01D22E7E0129E5E20E1A
:100B4000F11C4AE0B7010E94830CF70101900020DC
:100B5000E9F731978F010E191F092D2D402F6C2DAC
:100B6000CE010E94E904A80155270C2D10E08D2D1F
:100B700090E025E1C29E800D911D11240596B701DC
:100B80008C0F9D1F0E94740CC00FD11F81E08883C1
:100B9000DF91CF911F910F91FF90EF90DF90CF9059
:100BA000089580918C0190918D010895CF93DF93EA
:100BB000CDB7DEB7C459D3400FB6F894DEBF0FBE31
:100BC000CDBF61E0CE018C599F4F0E945A0A26E0AA
:100BD00048E250E067E270E0CE018C599F4F0E94DE
:100BE0008C0B4EE160E0CE018C599F4F0E949C0A15
:100BF000CE0101960E940B050E94F2018FE39CE951
:100C00000197F1F700C000000E9415040E94010442
:100C10000E940B04E12CF12C0EE311E020E040E0F7
:100C200060E0CE01895E9C4F0E94BC0884ECE82EF7
:100C3000FF24FA9406E411E021E040E061E0CE01F7
:100C400081529D4F0E94BC08E12CF12C09E411E077
:100C500020E041E060E0CE0189559D4F0E94BC0834
:100C600000E511E020E041E061E0CE0181599D4FB7
:100C70000E94BC0806E511E020E041E061E0CE0101
:100C8000895C9D4F0E94BC080CE511E020E041E02A
:100C900061E0CE0181509E4F0E94BC0802E611E047
:100CA00020E041E061E0CE0189539E4F0E94BC08E4
:100CB00008E611E020E042E060E0CE0181579E4F5F
:100CC0000E94BC0800E511E020E042E061E0CE01B6
:100CD000895A9E4F0E94BC0806E511E020E042E0E0
:100CE00061E0CE01815E9E4F0E94BC080EE611E0DD
:100CF00020E043E060E0CE0189519F4F0E94BC0894
:100D000004E711E021E040E061E0CE0181559F4F12
:100D10000E94BC0840E0BE016C597F4FCE01815556
:100D20009F4F0E94EB09BE0161527D4FCE01895E4B
:100D30009C4F0E94E709BE0169557D4FCE01895E37
:100D40009C4F0E94DB09BE0169517F4FCE01895E35
:100D50009C4F0E94DF0960E070E0CE01895E9C4FED
:100D60000E94E309BE01695E7C4FCE0181529D4F16
:100D70000E94E309BE0161597D4FCE0189559D4F07
:100D80000E94E709BE0161577E4FCE0189559D4FF4
:100D90000E94DB09BE01695E7C4FCE0189559D4FE3
:100DA0000E94DF0960E070E0CE0189559D4F0E94EE
:100DB000E30960E070E0CE0181599D4F0E94E70990
:100DC000BE01695C7D4FCE0181599D4F0E94DB09B8
:100DD000BE0169537E4FCE0181599D4F0E94DF09AC
:100DE000BE0169557D4FCE0181599D4F0E94E30997
:100DF00060E070E0CE01895C9D4F0E94E709BE0172
:100E000061507E4FCE01895C9D4F0E94DB09BE017F
:100E100061597D4FCE01895C9D4F0E94DF09BE0163
:100E200069557D4FCE01895C9D4F0E94E30960E0CA
:100E300070E0CE0181509E4F0E94E709BE016953C8
:100E40007E4FCE0181509E4F0E94DB09BE01695C3E
:100E50007D4FCE0181509E4F0E94DF09BE01695532
:100E60007D4FCE0181509E4F0E94E30960E070E00B
:100E7000CE0189539E4F0E94E709BE0161597D4F03
:100E8000CE0189539E4F0E94DB09BE0161507E4F07
:100E9000CE0189539E4F0E94DF09BE0169557D4FE7
:100EA000CE0189539E4F0E94E309BE01695A7E4FCD
:100EB000CE0181579E4F0E94E709BE0169517F4FC5
:100EC000CE0181579E4F0E94DB09BE0169557D4FBF
:100ED000CE0181579E4F0E94DF0960E070E0CE0195
:100EE00081579E4F0E94E30960E070E0CE01895A6D
:100EF0009E4F0E94E709BE01615E7E4FCE01895A76
:100F00009E4F0E94DB09BE01615E7E4FCE01895A71
:100F10009E4F0E94DF09BE0161577E4FCE01895A64
:100F20009E4F0E94E30960E070E0CE01815E9E4F1B
:100F30000E94E709BE01695A7E4FCE01815E9E4F35
:100F40000E94DB09BE01695A7E4FCE01815E9E4F31
:100F50000E94DF09BE0161577E4FCE01815E9E4F28
:100F60000E94E309BE0161557F4FCE0189519F4F19
:100F70000E94E709BE01695E7C4FCE0189519F4FF7
:100F80000E94DB09BE0161577E4FCE0189519F4F00
:100F90000E94DF0960E070E0CE0189519F4F0E94FE
:100FA000E309BE0169517F4FCE0181559F4F0E94D9
:100FB000E309BE01695E7C4FCE0183579C4F0E94BE
:100FC0009309CE01815B9C4F0E946A00CD56DC4F95
:100FD00019821882C359D340CF56DC4F1982188228
:100FE000C159D340CE018B579C4F0E94A6020E944C
:100FF00097040E94800278940E9492028C01809152
:10100000800190918101A0918201B0918301892B8F
:101010008A2B8B2BA1F7C8010E94B60390E0CF5614
:10102000DC4F99838883C159D340C0908801D09008
:101030008901E0908A01F0908B01609184017091A8
:1010400085018091860190918701A601CE01815B87
:101050009C4F0E94E70124E0AC0162E0CE010196C2
:101060000E943105C8010E948E0220E0AC0163E0BD
:10107000CE0101960E949105CF56DC4F48815981DF
:10108000C159D3402AE063E0CE0101960E94910548
:10109000CE0101960E94B204B2CF0F93CF93DF939B
:1010A000CDB7DEB72F970FB6F894DEBF0FBECDBF1A
:1010B00020B142B161B100E084EE91E00E94F009FC
:1010C00020B142B161B101E08FED91E00E94F009E1
:1010D00020B142B161B102E08AED91E00E94F009D5
:1010E0006AED71E0CE010B960E94F8096FED71E098
:1010F000CE0106960E94F80964EE71E0CE010196D9
:101100000E94F8099E01255F3F4FAE014A5F5F4F85
:10111000BE016F5F7F4F86EC91E00E94650220B1B7
:1011200042B161B103E081EC91E00E94F00920B18D
:1011300042B161B104E08CEB91E00E94F0094CEB0C
:1011400051E061EC71E08EE891E00E94FC012F9685
:101150000FB6F894DEBF0FBECDBFDF91CF910F91D8
:1011600008958EE891E00C9464028091E9019091D9
:10117000EA01089508950895EF92FF920F931F9347
:10118000CF93DF93EC016883498329A3FFAAEEAADA
:1011900044E150E0B80182960E94740C1B821A82CE
:1011A0001D821C821F821E82198618861F8E1E8E2B
:1011B000DF91CF911F910F91FF90EF900895CF9302
:1011C000DF93FC01C281D381209799F4DC0166A9E9
:1011D00077A96F5F7F4F77AB66AB868D978DFC01EC
:1011E00020813181F9012081318190964C91F90162
:1011F0000995CE01DF91CF910895CF93DF93FC0144
:10120000C481D581209799F4DC0166A977A9615042
:10121000710977AB66AB868D978DFC01208131819A
:10122000F9012081318190964C91F9010995CE0107
:10123000DF91CF910895EF92FF920F931F93CF9379
:10124000DF93EC018A819B818E010E5D1F4F892BFC
:1012500011F0C80129C08EA99FA997FD04C02BE2F7
:101260002A87E1E001C0E0E0EE2EF12CB701665FD5
:101270007F4F6C0F7D1F4AE00E94830CFC010190A0
:101280000020E9F73197E81BF90BEE0DFF1D44E153
:1012900050E04E1B5F0BCF010A96B8018C0F9D1FCB
:1012A0000E94740CCE010A96DF91CF911F910F918D
:1012B000FF90EF9008950F931F93CF93DF938C01CE
:1012C0000E94D105EC01D8011296ED91FC91139783
:1012D00080859185009781F4AF014E5D5F4F20E0DE
:1012E00060E0CE010E943105D8011296ED91FC918B
:1012F0001397868197810BC0AC014E5D5F4F20E054
:1013000060E0CE010E943105F801828193810E9444
:101310001B0920E0AC0161E0CE01DF91CF911F916C
:101320000F910C943105FC01718360839093EA0165
:101330008093E901FB01268137812115310511F4E4
:1013400020853185FC01338322830C945B09DC0109
:101350001296ED91FC911397268137812115310565
:1013600029F4208531852115310519F0FC013383DD
:1013700022830C945B09CF93DF93EC018A819B81DC
:101380000E94DF08009711F09B838A83CE01DF91D2
:10139000CF910C945B09CF93DF93EC018A819B8101
:1013A0000E94FD08009711F09B838A83CE01DF9194
:1013B000CF910C945B09FC01738362830895FC0157
:1013C000758364830895FC01718760870895FC012B
:1013D000778366830895FC01778F668F40A3089515
:1013E0000F93FC0160834183228303830F9108954F
:1013F0000895FC0181E0611101C080E084836623CF
:10140000B1F0208181E090E0A0E0B0E0038004C072
:10141000880F991FAA1FBB1F0A94D2F7322F30954D
:101420003823232720838095918189231BC085B78A
:1014300095B78071892785BF81E090E0A0E0B0E09A
:10144000038004C0880F991FAA1FBB1F0A94D2F7FC
:10145000282F20953081232320832181322F30951E
:101460008323822781830895FC018481882379F076
:101470008281662349F021E030E0038002C0220F20
:10148000331F0A94E2F701C020E0282B228308953D
:10149000FC0129E0429FE00DF11D112420E26202CF
:1014A000C001112464E670E00E943F0C658308953A
:1014B00080E008952AE731E0FC01318320833396F0
:1014C0009C01255B3F4F138212823996E217F30786
:1014D000D1F7FC0112829093EC018093EB01109202
:1014E000F1011092F2011092F3011092F4011092A6
:1014F000ED011092EE011092EF011092F001F894BC
:101500008091B00082608093B0008091B1008560CE
:101510008093B1001092B20081E18093B300B99A38
:101520008091700082608093700085B795B780715C
:10153000892785BF78940895FC0129E06202E00DB7
:10154000F11D112420E24202C001112464E670E082
:101550000E943F0C65830895FC0182819FEF980FE4
:101560009F3118F561110DC0A481B5812C9181E0E6
:1015700090E0008402C0880F991F0A94E2F7822B42
:101580008C9370E08281082E000C990B6817790704
:1015900019F5A481B5812C9181E090E0008402C00E
:1015A000880F991F0A94E2F70CC0A481B581308599
:1015B0002C91811109C081E090E001C0880F3A951B
:1015C000EAF78095822307C081E090E001C0880F90
:1015D0003A95EAF7822B8C930895FF920F931F930D
:1015E000CF93DF938C01D62FC0E089E0F82EF8016D
:1015F0008281C81758F4C801FC9E800D911D1124EA
:101600006D2F03960E94AC0ACF5FF1CFDF91CF918F
:101610001F910F91FF9008951F920F920FB60F9296
:1016200011242F933F934F935F936F937F938F93E7
:101630009F93AF93BF93EF93FF938091F1019091AC
:10164000F201A091F301B091F4010196A11DB11D29
:101650008093F1019093F201A093F301B093F40110
:101660008091F1019091F201A091F301B091F40108
:101670008197A105B10544F01092F1011092F20199
:101680001092F3011092F4016091F1017091F20156
:101690008091F3019091F4018091EB019091EC0124
:1016A0000E94ED0AFF91EF91BF91AF919F918F91B1
:1016B0007F916F915F914F913F912F910F900FBE4E
:1016C0000F901F901895CF93DF93DC01EB01FA0187
:1016D00017967C936E93169715965C934E9314977A
:1016E00018962C93388181E090E0A0E0B0E004C02F
:1016F000880F991FAA1FBB1F2A95D2F74881232F55
:101700002095282324272883308120818323822742
:101710008083DF91CF910895DC0112963C9112975E
:10172000E1E0E30F1296EC93B9E03B9F800D911D31
:10173000112403960C94630BFC011182108208950E
:10174000FB0101900020E9F73197E61BF70BE93226
:10175000F10524F4DC01ED93FC9305C028E230E0B0
:10176000FC0131832083DC014D915D91CD010C940E
:10177000740C08950F931F93CF93DF938C01FB019B
:10178000C081C93208F0C8E2D0E06E5F7F4FAE0181
:10179000C80102960E94740CF801D183C083C8016D
:1017A000DF91CF911F910F9108950F931F93CF93C6
:1017B000DF938C01FB01C081D181FC01808191818B
:1017C0009E01280F391F2932310524F0C8E2D0E0EC
:1017D000C81BD90B6E5F7F4F0296AE01800F911F21
:1017E0000E94740CF80180819181C80FD91FD183A8
:1017F000C083C801DF91CF911F910F9108950F937E
:101800001F93CF93DF93CDB7DEB7E0970FB6F89471
:10181000DEBF0FBECDBF8C01FB014AE0BE01635DA0
:101820007F4F808191810E94830CBE01635D7F4F59
:10183000CE0101960E94A00BBE016F5F7F4FC801D1
:101840000E94D50BBC01C8010E94BA0BC801E096EA
:101850000FB6F894DEBF0FBECDBFDF91CF911F91C1
:101860000F91089502960895FC01329628E2DF0157
:101870001D922A95E9F7FC0111821082089597FBC9
:10188000072E16F4009407D077FD09D00E94530C60
:1018900007FC05D03EF4909581959F4F0895709573
:1018A00061957F4F0895AA1BBB1B51E107C0AA1F7A
:1018B000BB1FA617B70710F0A61BB70B881F991FF1
:1018C0005A95A9F780959095BC01CD010895EE0F2A
:1018D000FF1F0590F491E02D0994FB01DC010190BC
:1018E0000D920020E1F70895FB01DC0141505040CA
:1018F00048F001900D920020C9F701C01D9241509F
:101900005040E0F70895BB274A3031F4992322F480
:10191000BDE2909581959F4F0C948F0CBB27FB01E6
:101920005527AA27880F991FAA1FA41710F0A41BD8
:1019300083955051B9F7A05DAA3308F0A95DA19332
:10194000009779F7B111B1931192CB010C94A80CC7
:10195000DC01FC01672F71917723E1F7329704C016
:101960007C916D9370836291AE17BF07C8F30895A1
:1019700010E0CFE3D0E004C0FE010E94670C219686
:0A198000C034D107C9F7F894FFCF77
:10198A00202020202020202020202020202020204D
:10199A0020202020000030004C696E652031004C68
:1019AA00696E6520320050686F6E650044414300DD
:1019BA004014542020202020202020202000566F70
:1019CA006C756D653A00644200496E7075743A0030
:1019DA004C696E6531004C696E6532004C696E6502
:1019EA0033004C696E653400496E666F3A00505791
:0E19FA004D203100250000000000480A580A68
:00000001FF
