:100000000C9440000C9468000C9468000C946800F8
:100010000C9468000C9468000C9468000C946800C0
:100020000C9468000C9468000C9468000C946800B0
:100030000C9468000C942D040C9468000C946800D7
:100040000C9468000C941E030C9468000C946800D7
:100050000C9468000C9468000C9468000C94680080
:100060000C9468000C9468000C9468000C94680070
:100070000C9468000C9468000C9468009A06FE06C4
:1000800011241FBECFEFD8E0DEBFCDBF11E0A0E04E
:10009000B1E0E6E3F1E102C005900D92A43AB107A8
:1000A000D9F722E0A4EAB1E001C01D92AD30B20759
:1000B000E1F710E0CFE3D0E004C02197FE010E94F9
:1000C0003208CE33D107C9F70E9445050C948E083B
:1000D0000C940000CF93DF93EC010A960E9467070F
:1000E000198218821B821A821D821C821F821E8224
:1000F000DF91CF910895AF92BF92CF92DF92EF92AE
:10010000FF920F931F93CF93DF93CDB7DEB7AC97DA
:100110000FB6F894DEBF0FBECDBF8C016B015A0144
:100120007C014AE0E40EF11CC7010E94FF07D801E0
:100130001996BC92AE9218971496AD90BC901597F4
:100140001296ED91FC9113972D913C916CE36A9D71
:10015000A0016B9D500D1124A0E1BEE0EA9FC001FB
:10016000EB9F900DFA9F900D1124840F951F40EA8C
:1001700055E0249FD001259FB00D349FB00D112470
:100180006A9FA0016B9F500D1124840F951FA6013B
:10019000481B590BCA01D80117965C934E931697CA
:1001A000009791F06CE370E00E940A08892B61F4DB
:1001B000BFEFAB1ABB0AD8011596BC92AE9214974A
:1001C00017961C921E921697D80114968D919C91A9
:1001D0001597009781F06CE370E00E940A08892B64
:1001E00051F43196D8011396FC93EE93129715961D
:1001F0001C921E921497F80182819381009761F0FE
:1002000068E170E00E940A08892B31F42F5F3F4FAC
:100210003183208313821282B801C7010E94CA076A
:10022000BC01C7010E9485076CE571E0CE01019613
:100230000E946B07BE016F5F7F4FC7010E94A0073E
:10024000BC01C7010E948507CE0101960E94840768
:10025000D80112968D919C9113970A97A4F46EE59C
:1002600071E0CE0101960E946B07BE016F5F7F4F68
:10027000C7010E94A007BC01C7010E948507CE01EB
:1002800001960E948407B8016E5F7F4FC7010E94EC
:10029000CA07BC01C7010E9485076CE571E0CE0169
:1002A00001960E946B07BE016F5F7F4FC7010E94DE
:1002B000A007BC01C7010E948507CE0101960E94DC
:1002C0008407F801848195810A97A4F46EE571E0B2
:1002D000CE0101960E946B07BE016F5F7F4FC70181
:1002E0000E94A007BC01C7010E948507CE010196AC
:1002F0000E948407B8016C5F7F4FC7010E94CA0744
:10030000BC01C7010E9485076CE571E0CE01019632
:100310000E946B07BE016F5F7F4FC7010E94A0075D
:10032000BC01C7010E948507CE0101960E94840787
:10033000D80116968D919C9117970A97A4F46EE5B3
:1003400071E0CE0101960E946B07BE016F5F7F4F87
:10035000C7010E94A007BC01C7010E948507CE010A
:1003600001960E948407B8016A5F7F4FC7010E940F
:10037000CA07BC01C7010E9485076CE571E0CE0188
:1003800001960E946B07BE016F5F7F4FC7010E94FD
:10039000A007B801685F7F4F0E94CA07BC01C70170
:1003A0000E948507CE0101960E948407AC960FB685
:1003B000F894DEBF0FBECDBFDF91CF911F910F919B
:1003C000FF90EF90DF90CF90BF90AF900895CF93C4
:1003D000DF93EC010E947B00CE010A96DF91CF9162
:1003E0000C94FD0785B7806885BF85B7806885BF99
:1003F00085B7806885BF0895EF92FF920F931F9392
:10040000CF93DF93EC0185E0FB01DE019496019030
:100410000D928A95E1F785E0FA01DE019996019047
:100420000D928A95E1F77E0124E2E20EF11C61E073
:10043000C7010E940B078E01075D1F4F61E0C801D5
:100440000E940B0760E0C7010E94460760E0C801F8
:100450000E944607CE01019618E0FC01212F11925F
:100460002A95E9F760E671E00E9438081882CE010B
:100470000A96FC01212F11922A95E9F767E671E0AF
:100480000E94380881E08987CE014396FC01212F24
:1004900011922A95E9F76EE671E00E94380882E031
:1004A0008A8BCE014C96FC0111921A95E9F764E70C
:1004B00071E00E94380883E08B8FDF91CF911F910C
:1004C0000F91FF90EF9008950895EF92FF920F9390
:1004D0001F93CF93DF93EC017A0189010E940A07F1
:1004E000B701CE0105960E940A07B801CE010A960F
:1004F000DF91CF911F910F91FF90EF900C940A071D
:1005000093B183B192FB992790F9990F83FB8827C8
:1005100080F9892B089514BC16BC85B5836085BD10
:1005200084E188BDB29AEEE6F0E080818460808349
:100530000895CF93DF93EC0185B795B78071892734
:1005400085BF84B194B18270892784B984B194B194
:100550008470892784B984B194B18870892784B95B
:1005600093B123B1892F90E080959095827099275F
:10057000822783B993B123B1892F90E0809590951C
:1005800084709927822783B993B123B1892F90E092
:100590008095909588709927822783B90E94800260
:1005A0008F8B93B1969591709D8B93B19695917029
:1005B000998F282F30E03595279535952795288FE9
:1005C0009A8F188A1F861E8AD093A501C093A40112
:1005D000DF91CF910895CF93DF93EC0183B186959E
:1005E00081708D8B0E9480028F8B988D891711F1FD
:1005F000813011F41E8A04C0823011F491E09E8B88
:100600009E8991110AC0833041F42F853889215089
:100610003109388B2F879FEF9E8B9E89913051F443
:10062000833041F42F8538892F5F3F4F388B2F87D8
:100630009FEF9E8B888FDF91CF9108951F920F922D
:100640000FB60F9211242F933F934F935F936F93A5
:100650007F938F939F93AF93BF93EF93FF9380917B
:10066000A6019091A701A091A801B091A901AC01A8
:10067000BD014F5F5F4F6F4F7F4F4093A601509377
:10068000A7016093A8017093A90181309440A1054E
:10069000B10544F01092A6011092A7011092A80192
:1006A0001092A9018091A4019091A5010E94EB02F2
:1006B000FF91EF91BF91AF919F918F917F916F913A
:1006C0005F914F913F912F910F900FBE0F901F9010
:1006D0001895613061F038F0623071F483B183FBBA
:1006E000882780F9089583B186958170089583B134
:1006F00082FB882780F9089583B193B182FB882714
:1007000080F9880F93FB992790F9892B0895FC01B4
:100710008785908908958091A4019091A5010895FD
:10072000FC018789089580FF02C0429A01C0429867
:1007300081FF02C0439A01C0439882FF02C0449ADD
:1007400001C0449883FF02C0459A089545980895D2
:10075000CF93C82F409A82958F700E949303409840
:10076000409A8C2F0E949303409885E88A95F1F770
:100770000000CF91089541980C94A803419A0C94DD
:10078000A803CF93DF93EC018991882319F00E948D
:10079000BE03FACFDF91CF9108956150633030F4FA
:1007A000E62FF0E0E858FE4F908101C090E0890FFD
:1007B00080680C94BB0381E00E94BB038FE99FE03B
:1007C0000197F1F700C00000089582E00E94BB038A
:1007D0008FE99FE00197F1F700C000000895CF93E3
:1007E0003A9A3B9A3C9A3D9A389A399A8FE493EC1C
:1007F0000197F1F700C0000041984098C3E0409A8B
:1008000083E00E94930340988FE19EE40197F1F703
:1008100000C00000C15099F7409A82E00E94930303
:1008200040988FE097E20197F1F700C0000088E25E
:100830000E94BB0388E00E94BB0381E00E94BB03CF
:100840008FE097E20197F1F700C0000086E00E9478
:10085000BB038CE0CF910C94BB031F920F920FB699
:100860000F9211248F939F93AF93BF938091AE010A
:100870009091AF01A091B001B091B1010196A11D7D
:10088000B11D8093AE019093AF01A093B001B093DE
:10089000B1010A97A105B105D9F48091AA019091FF
:1008A000AB01A091AC01B091AD010196A11DB11DAC
:1008B0008093AA019093AB01A093AC01B093AD01DA
:1008C0001092AE011092AF011092B0011092B101DE
:1008D000BF91AF919F918F910F900FBE0F901F907E
:1008E00018958FB780688FBF109280001092850096
:1008F00010928400E1E8F0E080818C60808385E3E1
:100900009CE09093890080938800B19AEFE6F0E034
:100910008081826080830895FC011082118212829E
:1009200013820895CF93DF93EC018881882349F0E7
:1009300060E080E00E94CD03CE0105960E94C103D5
:1009400018828981882349F061E080E00E94CD030C
:10095000CE0149960E94C10319828A81882349F0F9
:1009600062E080E00E94CD03CE018D960E94C1031B
:100970001A828B81882351F063E080E00E94CD03CE
:10098000CE018F5B9F4F0E94C1031B82DF91CF91ED
:10099000089524E1629F800D911D1124DC011596BC
:1009A00085E1E6E4F1E001900D928A95E1F7089582
:1009B000DF92EF92FF920F931F93CF93DF93EC019F
:1009C000D62E7A01122F0E94C904812F90E044E1B3
:1009D00050E0481B590B0D2D10E024E1D29E800DF4
:1009E000911D11240596B7018C0F9D1F0E943F0891
:1009F000FE01E00FF11F81E08083CE01DF91CF91F6
:100A00001F910F91FF90EF90DF900C949204CF9282
:100A1000DF92EF92FF920F931F93CF93DF93EC013E
:100A2000C62E8A01D22E0E94C9047E0125E5E20E5F
:100A3000F11C4AE0B701C8010E945908F701019072
:100A40000020E9F73197AF014E195F090C2D10E036
:100A50008D2D90E024E1C29E800D911D11240596FC
:100A6000B7018C0F9D1F0E943F08FE01E00FF11F90
:100A700081E08083CE01DF91CF911F910F91FF9094
:100A8000EF90DF90CF900C949204CF93DF93CDB78B
:100A9000DEB7C85FD1090FB6F894DEBF0FBECDBF79
:100AA000CE0101960E948C040E94F2018FE39CE922
:100AB0000197F1F700C000000E94EF030E94DB03E2
:100AC0000E94E50320E048E251E060E0CE0101969B
:100AD0000E94D80420E044E151E061E0CE0101969B
:100AE0000E94D80420E040E051E062E0CE0101968F
:100AF0000E94D804CE0186599F4F0E946A00C850B8
:100B0000DF4F1882C85FD040C950DF4F1882C75FDF
:100B1000D04023B145B164B101E0CE018E509F4F6A
:100B20000E94020723B145B164B102E0CE018351B6
:100B30009F4F0E94020723B145B164B103E0CE018B
:100B400088519F4F0E94020760E0CE018E509F4F58
:100B50000E940B0760E0CE0183519F4F0E940B075C
:100B600060E0CE0188519F4F0E940B07BE01685183
:100B70007F4FCE0185549F4F0E940A07BE016351EB
:100B80007F4FCE0181539F4F0E940A07BE016E50D6
:100B90007F4FCE018D519F4F0E940A079E01255421
:100BA0003F4FAE0141535F4FBE016D517F4FCE01AC
:100BB00080569F4F0E9499020E9471040E948B02EE
:100BC000789484E1EBE7F1E0DE01A153BF4F01909F
:100BD0000D928A95E1F784E1EFE8F1E0DE01A5549A
:100BE000BF4F01900D928A95E1F70E948B038C0113
:100BF0008FECA82EB12CAC0EBD1E96E0A90EB11C38
:100C00009BEBE92EF12CEC0EFD1E88E0E80EF11CAA
:100C10002BEBC22ED12CCC0EDD1E9CE0C90ED11CBC
:100C200083B186958170C850DF4F8883C85FD040FC
:100C3000CE018E509F4F0E945A07C950DF4F8883C4
:100C4000C75FD040C850DF4F8881C85FD0404AE0BE
:100C500050E064E371E0882319F081E090E002C085
:100C600080E090E00E944E08C950DF4F8881C75F46
:100C7000D0404AE050E068E371E090E00E944E0806
:100C800020E048E251E060E0CE0101960E94D804E5
:100C9000C8010E94870320E0AC0161E0CE0101960B
:100CA0000E9407054090AE015090AF016090B001E6
:100CB0007090B1016091AA017091AB018091AC017B
:100CC0009091AD01A201CE0186599F4F0E94E7018C
:100CD0004CE050E0BC01C5010E943F0860E0C80143
:100CE0000E94690344E050E0882319F061E471E058
:100CF00002C06CE371E0C7010E943F08C8010E9476
:100D0000900346E050E0B60190E00E944E0820E0DB
:100D1000AE0141535F4F62E0CE0101960E94D804BC
:100D200020E0AE0145545F4F63E0CE0101960E9482
:100D3000D80476CF0F93CF93DF93CDB7DEB72F973D
:100D40000FB6F894DEBF0FBECDBF20B142B161B186
:100D500000E088E092E00E94020720B142B161B158
:100D600001E083E092E00E94020720B142B161B14C
:100D700002E08EEF91E00E9402076EEF71E0CE017B
:100D80000B960E940A0763E072E0CE0106960E946D
:100D90000A0768E072E0CE0101960E940A079E01F0
:100DA000255F3F4FAE014A5F5F4FBE016F5F7F4FD0
:100DB0008AEE91E00E94650220B142B161B103E088
:100DC00085EE91E00E94020720B142B161B104E0DA
:100DD00080EE91E00E94020740EE51E065EE71E086
:100DE00082EB91E00E94FC012F960FB6F894DEBFD3
:100DF0000FBECDBFDF91CF910F91089582EB91E0AF
:100E00000C9464020F93FC0160834183228303836B
:100E10000F9108950895FC0181E0611101C080E007
:100E200084836623B1F0208181E090E0A0E0B0E00F
:100E3000038004C0880F991FAA1FBB1F0A94D2F712
:100E4000322F309538232327208380959181892361
:100E50001BC085B795B78071892785BF81E090E079
:100E6000A0E0B0E0038004C0880F991FAA1FBB1F39
:100E70000A94D2F7282F20953081232320832181C3
:100E8000322F30958323822781830895FC0184814A
:100E9000882379F08281662349F021E030E00380E5
:100EA00002C0220F331F0A94E2F701C020E0282B72
:100EB00022830895FC01228130E0A901038002C051
:100EC000559547950A94E2F7CA0181700895FC018F
:100ED000118210820895FB0101900020E9F73197FB
:100EE000E61BF70BE932F10524F4DC01ED93FC93EA
:100EF00005C028E230E0FC0131832083DC014D9104
:100F00005D91CD010C943F0808950F931F93CF93EB
:100F1000DF938C01FB01C081C93208F0C8E2D0E048
:100F20006E5F7F4FAE01C80102960E943F08F80134
:100F3000D183C083C801DF91CF911F910F91089594
:100F40000F931F93CF93DF938C01FB01C081D1815D
:100F5000FC01808191819E01280F391F29323105C2
:100F600024F0C8E2D0E0C81BD90B6E5F7F4F029619
:100F7000AE01800F911F0E943F08F801808191818E
:100F8000C80FD91FD183C083C801DF91CF911F91B2
:100F90000F9108950F931F93CF93DF93CDB7DEB7D3
:100FA000E0970FB6F894DEBF0FBECDBF8C01FB01FA
:100FB0004AE0BE01635D7F4F808191810E945908A4
:100FC000BE01635D7F4FCE0101960E946B07BE019B
:100FD0006F5F7F4FC8010E94A007BC01C8010E943B
:100FE0008507C801E0960FB6F894DEBF0FBECDBFEF
:100FF000DF91CF911F910F91089502960895FC0102
:10100000329628E2DF011D922A95E9F7FC01118250
:101010001082089597FB072E16F4009407D077FDF1
:1010200009D00E941E0807FC05D03EF490958195DA
:101030009F4F0895709561957F4F0895AA1BBB1B24
:1010400051E107C0AA1FBB1FA617B70710F0A61BC8
:10105000B70B881F991F5A95A9F780959095BC01E9
:10106000CD010895EE0FFF1F0590F491E02D099436
:10107000FB01DC0101900D920020E1F70895FB01D6
:10108000DC014150504048F001900D920020C9F71A
:1010900001C01D9241505040E0F70895453251057E
:1010A00020F4423010F00C945908FB011082CB015F
:1010B0000895BB274A3031F4992322F4BDE290957C
:1010C00081959F4F0C946508BB27FB015527AA27E4
:1010D000880F991FAA1FA41710F0A41B83955051C5
:1010E000B9F7A05DAA3308F0A95DA193009779F73D
:1010F000B111B1931192CB010C947E08DC01FC017B
:10110000672F71917723E1F7329704C07C916D933B
:1011100070836291AE17BF07C8F3089510E0CFE364
:10112000D0E004C0FE010E9432082196C034D107ED
:06113000C9F7F894FFCF9F
:10113600496E7465722D2D2D2D2D2D2D2D2D2D2DB8
:101146002D2D2D0020202020202020202020202092
:10115600202020202020200048656C6C6F204C4306
:10116600442020202020202020202000444F574EBD
:101176000055502020002020202020202020202044
:101186002020202020202020202000003A003000AF
:101196004C696E652031004C696E652032005068DE
:1011A6006F6E6500444143004014542020202020E7
:1011B6002020202020202020202020202020004524
:1011C6006E636F6465723A20202020202020202044
:0411D60020200000D5
:00000001FF
